{
  "contractName": "LikeStorage",
  "abi": [
    {
      "inputs": [],
      "stateMutability": "nonpayable",
      "type": "constructor"
    },
    {
      "anonymous": false,
      "inputs": [
        {
          "indexed": true,
          "internalType": "uint256",
          "name": "resourceType",
          "type": "uint256"
        },
        {
          "indexed": true,
          "internalType": "bytes32",
          "name": "resourceIdHash",
          "type": "bytes32"
        }
      ],
      "name": "EventLikeResource",
      "type": "event"
    },
    {
      "anonymous": false,
      "inputs": [
        {
          "indexed": true,
          "internalType": "bytes32",
          "name": "urlHash",
          "type": "bytes32"
        }
      ],
      "name": "EventLikeUrl",
      "type": "event"
    },
    {
      "anonymous": false,
      "inputs": [
        {
          "indexed": true,
          "internalType": "uint256",
          "name": "resourceType",
          "type": "uint256"
        },
        {
          "indexed": true,
          "internalType": "bytes32",
          "name": "usernameHash",
          "type": "bytes32"
        }
      ],
      "name": "EventResourceTypeCreated",
      "type": "event"
    },
    {
      "inputs": [],
      "name": "logicAddress",
      "outputs": [
        {
          "internalType": "address",
          "name": "",
          "type": "address"
        }
      ],
      "stateMutability": "view",
      "type": "function"
    },
    {
      "inputs": [],
      "name": "newResourceId",
      "outputs": [
        {
          "internalType": "uint256",
          "name": "",
          "type": "uint256"
        }
      ],
      "stateMutability": "view",
      "type": "function"
    },
    {
      "inputs": [],
      "name": "owner",
      "outputs": [
        {
          "internalType": "address",
          "name": "",
          "type": "address"
        }
      ],
      "stateMutability": "view",
      "type": "function"
    },
    {
      "inputs": [
        {
          "internalType": "bytes32",
          "name": "",
          "type": "bytes32"
        }
      ],
      "name": "resourceIdStatistics",
      "outputs": [
        {
          "internalType": "uint256",
          "name": "resourceTypeId",
          "type": "uint256"
        },
        {
          "internalType": "bytes32",
          "name": "resourceIdHash",
          "type": "bytes32"
        },
        {
          "internalType": "bytes32",
          "name": "urlHash",
          "type": "bytes32"
        },
        {
          "internalType": "uint256",
          "name": "reactions",
          "type": "uint256"
        },
        {
          "internalType": "uint256",
          "name": "donates",
          "type": "uint256"
        },
        {
          "internalType": "bool",
          "name": "isActive",
          "type": "bool"
        }
      ],
      "stateMutability": "view",
      "type": "function"
    },
    {
      "inputs": [
        {
          "internalType": "uint256",
          "name": "",
          "type": "uint256"
        }
      ],
      "name": "resources",
      "outputs": [
        {
          "internalType": "uint256",
          "name": "id",
          "type": "uint256"
        },
        {
          "internalType": "string",
          "name": "title",
          "type": "string"
        },
        {
          "internalType": "string",
          "name": "description",
          "type": "string"
        },
        {
          "internalType": "string",
          "name": "url",
          "type": "string"
        },
        {
          "internalType": "uint256",
          "name": "reactions",
          "type": "uint256"
        },
        {
          "internalType": "uint256",
          "name": "donates",
          "type": "uint256"
        },
        {
          "internalType": "bytes32",
          "name": "ownerUsernameHash",
          "type": "bytes32"
        },
        {
          "internalType": "bool",
          "name": "isActive",
          "type": "bool"
        }
      ],
      "stateMutability": "view",
      "type": "function"
    },
    {
      "inputs": [
        {
          "internalType": "bytes32",
          "name": "",
          "type": "bytes32"
        }
      ],
      "name": "userLike",
      "outputs": [
        {
          "internalType": "bool",
          "name": "",
          "type": "bool"
        }
      ],
      "stateMutability": "view",
      "type": "function"
    },
    {
      "inputs": [
        {
          "internalType": "address",
          "name": "_address",
          "type": "address"
        }
      ],
      "name": "setOwner",
      "outputs": [],
      "stateMutability": "nonpayable",
      "type": "function"
    },
    {
      "inputs": [
        {
          "internalType": "address",
          "name": "_logicAddress",
          "type": "address"
        }
      ],
      "name": "setLogicAddress",
      "outputs": [],
      "stateMutability": "nonpayable",
      "type": "function"
    },
    {
      "inputs": [
        {
          "internalType": "bytes32",
          "name": "key",
          "type": "bytes32"
        },
        {
          "components": [
            {
              "internalType": "uint256",
              "name": "resourceTypeId",
              "type": "uint256"
            },
            {
              "internalType": "bytes32",
              "name": "resourceIdHash",
              "type": "bytes32"
            },
            {
              "internalType": "bytes32",
              "name": "urlHash",
              "type": "bytes32"
            },
            {
              "internalType": "uint256",
              "name": "reactions",
              "type": "uint256"
            },
            {
              "internalType": "uint256",
              "name": "donates",
              "type": "uint256"
            },
            {
              "internalType": "bool",
              "name": "isActive",
              "type": "bool"
            }
          ],
          "internalType": "struct LikeStorage.ResourceIdStatistics",
          "name": "value",
          "type": "tuple"
        }
      ],
      "name": "setResourceIdStatistics",
      "outputs": [],
      "stateMutability": "nonpayable",
      "type": "function"
    },
    {
      "inputs": [
        {
          "internalType": "bytes32",
          "name": "key",
          "type": "bytes32"
        }
      ],
      "name": "getResourceIdStatistics",
      "outputs": [
        {
          "components": [
            {
              "internalType": "uint256",
              "name": "resourceTypeId",
              "type": "uint256"
            },
            {
              "internalType": "bytes32",
              "name": "resourceIdHash",
              "type": "bytes32"
            },
            {
              "internalType": "bytes32",
              "name": "urlHash",
              "type": "bytes32"
            },
            {
              "internalType": "uint256",
              "name": "reactions",
              "type": "uint256"
            },
            {
              "internalType": "uint256",
              "name": "donates",
              "type": "uint256"
            },
            {
              "internalType": "bool",
              "name": "isActive",
              "type": "bool"
            }
          ],
          "internalType": "struct LikeStorage.ResourceIdStatistics",
          "name": "",
          "type": "tuple"
        }
      ],
      "stateMutability": "view",
      "type": "function"
    },
    {
      "inputs": [
        {
          "internalType": "uint256",
          "name": "key",
          "type": "uint256"
        },
        {
          "components": [
            {
              "internalType": "uint256",
              "name": "id",
              "type": "uint256"
            },
            {
              "internalType": "string",
              "name": "title",
              "type": "string"
            },
            {
              "internalType": "string",
              "name": "description",
              "type": "string"
            },
            {
              "internalType": "string",
              "name": "url",
              "type": "string"
            },
            {
              "internalType": "uint256",
              "name": "reactions",
              "type": "uint256"
            },
            {
              "internalType": "uint256",
              "name": "donates",
              "type": "uint256"
            },
            {
              "internalType": "bytes32",
              "name": "ownerUsernameHash",
              "type": "bytes32"
            },
            {
              "internalType": "bool",
              "name": "isActive",
              "type": "bool"
            }
          ],
          "internalType": "struct LikeStorage.ResourceType",
          "name": "value",
          "type": "tuple"
        }
      ],
      "name": "setResourceType",
      "outputs": [],
      "stateMutability": "nonpayable",
      "type": "function"
    },
    {
      "inputs": [
        {
          "internalType": "uint256",
          "name": "key",
          "type": "uint256"
        }
      ],
      "name": "getResourceType",
      "outputs": [
        {
          "components": [
            {
              "internalType": "uint256",
              "name": "id",
              "type": "uint256"
            },
            {
              "internalType": "string",
              "name": "title",
              "type": "string"
            },
            {
              "internalType": "string",
              "name": "description",
              "type": "string"
            },
            {
              "internalType": "string",
              "name": "url",
              "type": "string"
            },
            {
              "internalType": "uint256",
              "name": "reactions",
              "type": "uint256"
            },
            {
              "internalType": "uint256",
              "name": "donates",
              "type": "uint256"
            },
            {
              "internalType": "bytes32",
              "name": "ownerUsernameHash",
              "type": "bytes32"
            },
            {
              "internalType": "bool",
              "name": "isActive",
              "type": "bool"
            }
          ],
          "internalType": "struct LikeStorage.ResourceType",
          "name": "",
          "type": "tuple"
        }
      ],
      "stateMutability": "view",
      "type": "function"
    },
    {
      "inputs": [
        {
          "internalType": "bytes32",
          "name": "key",
          "type": "bytes32"
        },
        {
          "internalType": "bool",
          "name": "value",
          "type": "bool"
        }
      ],
      "name": "setUserLike",
      "outputs": [],
      "stateMutability": "nonpayable",
      "type": "function"
    },
    {
      "inputs": [
        {
          "internalType": "bytes32",
          "name": "key",
          "type": "bytes32"
        }
      ],
      "name": "getUserLike",
      "outputs": [
        {
          "internalType": "bool",
          "name": "",
          "type": "bool"
        }
      ],
      "stateMutability": "view",
      "type": "function"
    },
    {
      "inputs": [],
      "name": "incrementResourceId",
      "outputs": [],
      "stateMutability": "nonpayable",
      "type": "function"
    },
    {
      "inputs": [],
      "name": "decrementResourceId",
      "outputs": [],
      "stateMutability": "nonpayable",
      "type": "function"
    },
    {
      "inputs": [
        {
          "internalType": "bytes32",
          "name": "urlHash",
          "type": "bytes32"
        }
      ],
      "name": "emitEventLikeUrl",
      "outputs": [],
      "stateMutability": "nonpayable",
      "type": "function"
    },
    {
      "inputs": [
        {
          "internalType": "uint256",
          "name": "resourceType",
          "type": "uint256"
        },
        {
          "internalType": "bytes32",
          "name": "resourceIdHash",
          "type": "bytes32"
        }
      ],
      "name": "emitEventLikeResource",
      "outputs": [],
      "stateMutability": "nonpayable",
      "type": "function"
    },
    {
      "inputs": [
        {
          "internalType": "uint256",
          "name": "resourceType",
          "type": "uint256"
        },
        {
          "internalType": "bytes32",
          "name": "usernameHash",
          "type": "bytes32"
        }
      ],
      "name": "emitEventResourceTypeCreated",
      "outputs": [],
      "stateMutability": "nonpayable",
      "type": "function"
    }
  ],
  "bytecode": "0x6080604052600160025534801561001557600080fd5b50336000806101000a81548173ffffffffffffffffffffffffffffffffffffffff021916908373ffffffffffffffffffffffffffffffffffffffff160217905550611cbf806100656000396000f3fe608060405234801561001057600080fd5b50600436106101215760003560e01c80639809f7e1116100ad578063ce40c37111610071578063ce40c371146102e7578063cf87be3d14610303578063da58ea5c14610333578063f90a232e1461034f578063fdcfc3ef1461038457610121565b80639809f7e1146102575780639c1fcc4c146102875780639eca1c90146102a5578063ade505d5146102c1578063b84b70cc146102dd57610121565b806338b6f62d116100f457806338b6f62d146101b35780634b66e5c3146101bd57806383c51743146101d95780638a497b05146102095780638da5cb5b1461023957610121565b806309dccea91461012657806313af403514610144578063244d6daa146101605780633103f29014610197575b600080fd5b61012e6103a0565b60405161013b91906119f3565b60405180910390f35b61015e60048036038101906101599190611529565b6103a6565b005b61017a600480360381019061017591906115f3565b610478565b60405161018e989796959493929190611a6f565b60405180910390f35b6101b160048036038101906101ac9190611552565b610695565b005b6101bb610755565b005b6101d760048036038101906101d2919061157b565b6107fa565b005b6101f360048036038101906101ee9190611552565b6108b9565b604051610200919061195b565b60405180910390f35b610223600480360381019061021e91906115f3565b6108e3565b60405161023091906119d1565b60405180910390f35b610241610b3a565b60405161024e9190611940565b60405180910390f35b610271600480360381019061026c9190611552565b610b5f565b60405161027e919061195b565b60405180910390f35b61028f610b7f565b60405161029c9190611940565b60405180910390f35b6102bf60048036038101906102ba91906115b7565b610ba5565b005b6102db60048036038101906102d6919061161c565b610ca2565b005b6102e5610d64565b005b61030160048036038101906102fc919061161c565b610e08565b005b61031d60048036038101906103189190611552565b610eca565b60405161032a91906119b6565b60405180910390f35b61034d60048036038101906103489190611658565b610f44565b005b61036960048036038101906103649190611552565b61108e565b60405161037b96959493929190611a0e565b60405180910390f35b61039e60048036038101906103999190611529565b6110d7565b005b60025481565b6000809054906101000a900473ffffffffffffffffffffffffffffffffffffffff1673ffffffffffffffffffffffffffffffffffffffff163373ffffffffffffffffffffffffffffffffffffffff1614610435576040517f08c379a000000000000000000000000000000000000000000000000000000000815260040161042c90611976565b60405180910390fd5b806000806101000a81548173ffffffffffffffffffffffffffffffffffffffff021916908373ffffffffffffffffffffffffffffffffffffffff16021790555050565b6003602052806000526040600020600091509050806000015490806001018054600181600116156101000203166002900480601f01602080910402602001604051908101604052809291908181526020018280546001816001161561010002031660029004801561052a5780601f106104ff5761010080835404028352916020019161052a565b820191906000526020600020905b81548152906001019060200180831161050d57829003601f168201915b505050505090806002018054600181600116156101000203166002900480601f0160208091040260200160405190810160405280929190818152602001828054600181600116156101000203166002900480156105c85780601f1061059d576101008083540402835291602001916105c8565b820191906000526020600020905b8154815290600101906020018083116105ab57829003601f168201915b505050505090806003018054600181600116156101000203166002900480601f0160208091040260200160405190810160405280929190818152602001828054600181600116156101000203166002900480156106665780601f1061063b57610100808354040283529160200191610666565b820191906000526020600020905b81548152906001019060200180831161064957829003601f168201915b5050505050908060040154908060050154908060060154908060070160009054906101000a900460ff16905088565b600160009054906101000a900473ffffffffffffffffffffffffffffffffffffffff1673ffffffffffffffffffffffffffffffffffffffff163373ffffffffffffffffffffffffffffffffffffffff1614610725576040517f08c379a000000000000000000000000000000000000000000000000000000000815260040161071c90611996565b60405180910390fd5b807f62777912b2f3276dc50c0e90e8914d9b23960552518176879aaba9b23b623ea960405160405180910390a250565b600160009054906101000a900473ffffffffffffffffffffffffffffffffffffffff1673ffffffffffffffffffffffffffffffffffffffff163373ffffffffffffffffffffffffffffffffffffffff16146107e5576040517f08c379a00000000000000000000000000000000000000000000000000000000081526004016107dc90611996565b60405180910390fd5b60026000815480929190600190039190505550565b600160009054906101000a900473ffffffffffffffffffffffffffffffffffffffff1673ffffffffffffffffffffffffffffffffffffffff163373ffffffffffffffffffffffffffffffffffffffff161461088a576040517f08c379a000000000000000000000000000000000000000000000000000000000815260040161088190611996565b60405180910390fd5b806005600084815260200190815260200160002060006101000a81548160ff0219169083151502179055505050565b60006005600083815260200190815260200160002060009054906101000a900460ff169050919050565b6108eb6111aa565b600360008381526020019081526020016000206040518061010001604052908160008201548152602001600182018054600181600116156101000203166002900480601f0160208091040260200160405190810160405280929190818152602001828054600181600116156101000203166002900480156109ad5780601f10610982576101008083540402835291602001916109ad565b820191906000526020600020905b81548152906001019060200180831161099057829003601f168201915b50505050508152602001600282018054600181600116156101000203166002900480601f016020809104026020016040519081016040528092919081815260200182805460018160011615610100020316600290048015610a4f5780601f10610a2457610100808354040283529160200191610a4f565b820191906000526020600020905b815481529060010190602001808311610a3257829003601f168201915b50505050508152602001600382018054600181600116156101000203166002900480601f016020809104026020016040519081016040528092919081815260200182805460018160011615610100020316600290048015610af15780601f10610ac657610100808354040283529160200191610af1565b820191906000526020600020905b815481529060010190602001808311610ad457829003601f168201915b505050505081526020016004820154815260200160058201548152602001600682015481526020016007820160009054906101000a900460ff1615151515815250509050919050565b6000809054906101000a900473ffffffffffffffffffffffffffffffffffffffff1681565b60056020528060005260406000206000915054906101000a900460ff1681565b600160009054906101000a900473ffffffffffffffffffffffffffffffffffffffff1681565b600160009054906101000a900473ffffffffffffffffffffffffffffffffffffffff1673ffffffffffffffffffffffffffffffffffffffff163373ffffffffffffffffffffffffffffffffffffffff1614610c35576040517f08c379a0000000000000000000000000000000000000000000000000000000008152600401610c2c90611996565b60405180910390fd5b8060046000848152602001908152602001600020600082015181600001556020820151816001015560408201518160020155606082015181600301556080820151816004015560a08201518160050160006101000a81548160ff0219169083151502179055509050505050565b600160009054906101000a900473ffffffffffffffffffffffffffffffffffffffff1673ffffffffffffffffffffffffffffffffffffffff163373ffffffffffffffffffffffffffffffffffffffff1614610d32576040517f08c379a0000000000000000000000000000000000000000000000000000000008152600401610d2990611996565b60405180910390fd5b80827feebe0e6f6b54249235331a4b6efc5fd2db46e5fd8ca6432121d65663bc26d34260405160405180910390a35050565b600160009054906101000a900473ffffffffffffffffffffffffffffffffffffffff1673ffffffffffffffffffffffffffffffffffffffff163373ffffffffffffffffffffffffffffffffffffffff1614610df4576040517f08c379a0000000000000000000000000000000000000000000000000000000008152600401610deb90611996565b60405180910390fd5b600260008154809291906001019190505550565b600160009054906101000a900473ffffffffffffffffffffffffffffffffffffffff1673ffffffffffffffffffffffffffffffffffffffff163373ffffffffffffffffffffffffffffffffffffffff1614610e98576040517f08c379a0000000000000000000000000000000000000000000000000000000008152600401610e8f90611996565b60405180910390fd5b80827f375b9f03fd3015135c8c9d2b6aa09879fb83d93c4af1eb132b2829b73fa9265960405160405180910390a35050565b610ed26111f4565b600460008381526020019081526020016000206040518060c001604052908160008201548152602001600182015481526020016002820154815260200160038201548152602001600482015481526020016005820160009054906101000a900460ff1615151515815250509050919050565b600160009054906101000a900473ffffffffffffffffffffffffffffffffffffffff1673ffffffffffffffffffffffffffffffffffffffff163373ffffffffffffffffffffffffffffffffffffffff1614610fd4576040517f08c379a0000000000000000000000000000000000000000000000000000000008152600401610fcb90611996565b60405180910390fd5b806003600084815260200190815260200160002060008201518160000155602082015181600101908051906020019061100e929190611232565b50604082015181600201908051906020019061102b929190611232565b506060820151816003019080519060200190611048929190611232565b506080820151816004015560a0820151816005015560c0820151816006015560e08201518160070160006101000a81548160ff0219169083151502179055509050505050565b60046020528060005260406000206000915090508060000154908060010154908060020154908060030154908060040154908060050160009054906101000a900460ff16905086565b6000809054906101000a900473ffffffffffffffffffffffffffffffffffffffff1673ffffffffffffffffffffffffffffffffffffffff163373ffffffffffffffffffffffffffffffffffffffff1614611166576040517f08c379a000000000000000000000000000000000000000000000000000000000815260040161115d90611976565b60405180910390fd5b80600160006101000a81548173ffffffffffffffffffffffffffffffffffffffff021916908373ffffffffffffffffffffffffffffffffffffffff16021790555050565b604051806101000160405280600081526020016060815260200160608152602001606081526020016000815260200160008152602001600080191681526020016000151581525090565b6040518060c0016040528060008152602001600080191681526020016000801916815260200160008152602001600081526020016000151581525090565b828054600181600116156101000203166002900490600052602060002090601f016020900481019282601f1061127357805160ff19168380011785556112a1565b828001600101855582156112a1579182015b828111156112a0578251825591602001919060010190611285565b5b5090506112ae91906112b2565b5090565b6112d491905b808211156112d05760008160009055506001016112b8565b5090565b90565b6000813590506112e681611c2d565b92915050565b6000813590506112fb81611c44565b92915050565b60008135905061131081611c5b565b92915050565b600082601f83011261132757600080fd5b813561133a61133582611b2f565b611b02565b9150808252602083016020830185838301111561135657600080fd5b611361838284611bda565b50505092915050565b600060c0828403121561137c57600080fd5b61138660c0611b02565b9050600061139684828501611514565b60008301525060206113aa84828501611301565b60208301525060406113be84828501611301565b60408301525060606113d284828501611514565b60608301525060806113e684828501611514565b60808301525060a06113fa848285016112ec565b60a08301525092915050565b6000610100828403121561141957600080fd5b611424610100611b02565b9050600061143484828501611514565b600083015250602082013567ffffffffffffffff81111561145457600080fd5b61146084828501611316565b602083015250604082013567ffffffffffffffff81111561148057600080fd5b61148c84828501611316565b604083015250606082013567ffffffffffffffff8111156114ac57600080fd5b6114b884828501611316565b60608301525060806114cc84828501611514565b60808301525060a06114e084828501611514565b60a08301525060c06114f484828501611301565b60c08301525060e0611508848285016112ec565b60e08301525092915050565b60008135905061152381611c72565b92915050565b60006020828403121561153b57600080fd5b6000611549848285016112d7565b91505092915050565b60006020828403121561156457600080fd5b600061157284828501611301565b91505092915050565b6000806040838503121561158e57600080fd5b600061159c85828601611301565b92505060206115ad858286016112ec565b9150509250929050565b60008060e083850312156115ca57600080fd5b60006115d885828601611301565b92505060206115e98582860161136a565b9150509250929050565b60006020828403121561160557600080fd5b600061161384828501611514565b91505092915050565b6000806040838503121561162f57600080fd5b600061163d85828601611514565b925050602061164e85828601611301565b9150509250929050565b6000806040838503121561166b57600080fd5b600061167985828601611514565b925050602083013567ffffffffffffffff81111561169657600080fd5b6116a285828601611406565b9150509250929050565b6116b581611b88565b82525050565b6116c481611b9a565b82525050565b6116d381611b9a565b82525050565b6116e281611ba6565b82525050565b6116f181611ba6565b82525050565b600061170282611b5b565b61170c8185611b66565b935061171c818560208601611be9565b61172581611c1c565b840191505092915050565b600061173b82611b5b565b6117458185611b77565b9350611755818560208601611be9565b61175e81611c1c565b840191505092915050565b6000611776601783611b77565b91507f43616c6c6572206973206e6f7420746865206f776e65720000000000000000006000830152602082019050919050565b60006117b6601f83611b77565b91507f43616c6c6572206973206e6f7420746865206c6f6769632061646472657373006000830152602082019050919050565b60c0820160008201516117ff6000850182611922565b50602082015161181260208501826116d9565b50604082015161182560408501826116d9565b5060608201516118386060850182611922565b50608082015161184b6080850182611922565b5060a082015161185e60a08501826116bb565b50505050565b60006101008301600083015161187d6000860182611922565b506020830151848203602086015261189582826116f7565b915050604083015184820360408601526118af82826116f7565b915050606083015184820360608601526118c982826116f7565b91505060808301516118de6080860182611922565b5060a08301516118f160a0860182611922565b5060c083015161190460c08601826116d9565b5060e083015161191760e08601826116bb565b508091505092915050565b61192b81611bd0565b82525050565b61193a81611bd0565b82525050565b600060208201905061195560008301846116ac565b92915050565b600060208201905061197060008301846116ca565b92915050565b6000602082019050818103600083015261198f81611769565b9050919050565b600060208201905081810360008301526119af816117a9565b9050919050565b600060c0820190506119cb60008301846117e9565b92915050565b600060208201905081810360008301526119eb8184611864565b905092915050565b6000602082019050611a086000830184611931565b92915050565b600060c082019050611a236000830189611931565b611a3060208301886116e8565b611a3d60408301876116e8565b611a4a6060830186611931565b611a576080830185611931565b611a6460a08301846116ca565b979650505050505050565b600061010082019050611a85600083018b611931565b8181036020830152611a97818a611730565b90508181036040830152611aab8189611730565b90508181036060830152611abf8188611730565b9050611ace6080830187611931565b611adb60a0830186611931565b611ae860c08301856116e8565b611af560e08301846116ca565b9998505050505050505050565b6000604051905081810181811067ffffffffffffffff82111715611b2557600080fd5b8060405250919050565b600067ffffffffffffffff821115611b4657600080fd5b601f19601f8301169050602081019050919050565b600081519050919050565b600082825260208201905092915050565b600082825260208201905092915050565b6000611b9382611bb0565b9050919050565b60008115159050919050565b6000819050919050565b600073ffffffffffffffffffffffffffffffffffffffff82169050919050565b6000819050919050565b82818337600083830152505050565b60005b83811015611c07578082015181840152602081019050611bec565b83811115611c16576000848401525b50505050565b6000601f19601f8301169050919050565b611c3681611b88565b8114611c4157600080fd5b50565b611c4d81611b9a565b8114611c5857600080fd5b50565b611c6481611ba6565b8114611c6f57600080fd5b50565b611c7b81611bd0565b8114611c8657600080fd5b5056fea264697066735822122058910654dbf9d9149ffa8987d506e78dac4d10a91e9f91dcb38db1d03a9da51864736f6c63430006040033",
  "source": "pragma solidity ^0.6.4;\npragma experimental ABIEncoderV2;\n\n// SPDX-License-Identifier: UNLICENSED\ncontract LikeStorage {\n    address public owner;\n    address public logicAddress;\n    uint public newResourceId = 1;\n    mapping(uint => ResourceType) public resources;\n    //mapping(bytes32 => ResourceTypeStatistics) public resourceTypeStatistics;\n    mapping(bytes32 => ResourceIdStatistics) public resourceIdStatistics;\n    mapping(bytes32 => bool) public userLike;\n\n    event EventLikeUrl(bytes32 indexed urlHash);\n    // todo resourceType replace to resourceTypeId?\n    event EventLikeResource(uint indexed resourceType, bytes32 indexed resourceIdHash);\n    event EventResourceTypeCreated(uint indexed resourceType, bytes32 indexed usernameHash);\n\n    struct ResourceType {\n        uint id;\n        string title;\n        string description;\n        string url;\n        uint reactions;\n        uint donates;\n        bytes32 ownerUsernameHash;\n        bool isActive;\n    }\n\n    struct ResourceIdStatistics {\n        // only for likes with resource_type_id and resource_id\n        uint resourceTypeId;\n        // only for likes with resource_type_id and resource_id\n        bytes32 resourceIdHash;\n        // only for likes with url\n        bytes32 urlHash;\n        uint reactions;\n        uint donates;\n        bool isActive;\n    }\n\n    /*struct Like {\n        uint resourceType;\n        bytes32 resourceIdHash;\n        bytes32 usernameHash;\n        uint8 typeId;\n        string data;\n        bool isActive;\n    }*/\n\n    constructor() public {\n        owner = msg.sender;\n    }\n\n    modifier onlyLogicAddress() {\n        require(msg.sender == logicAddress, \"Caller is not the logic address\");\n        _;\n    }\n\n    modifier onlyOwner() {\n        require(msg.sender == owner, \"Caller is not the owner\");\n        _;\n    }\n\n    function setOwner(address _address) onlyOwner public {\n        owner = _address;\n    }\n\n    function setLogicAddress(address _logicAddress) onlyOwner public {\n        logicAddress = _logicAddress;\n    }\n\n    function setResourceIdStatistics(bytes32 key, ResourceIdStatistics memory value) onlyLogicAddress public {\n        resourceIdStatistics[key] = value;\n    }\n\n    function getResourceIdStatistics(bytes32 key) public view returns (ResourceIdStatistics memory) {\n        return resourceIdStatistics[key];\n    }\n\n    /*function setResourceTypeStatistics(bytes32 key, ResourceTypeStatistics memory value) public {\n        resourceTypeStatistics[key] = value;\n    }\n\n    function getResourceTypeStatistics(bytes32 key) public view returns (ResourceTypeStatistics memory) {\n        return resourceTypeStatistics[key];\n    }*/\n\n    function setResourceType(uint key, ResourceType memory value) onlyLogicAddress public {\n        resources[key] = value;\n    }\n\n    function getResourceType(uint key) public view returns (ResourceType memory) {\n        return resources[key];\n    }\n\n    function setUserLike(bytes32 key, bool value) onlyLogicAddress public {\n        userLike[key] = value;\n    }\n\n    function getUserLike(bytes32 key) public view returns (bool) {\n        return userLike[key];\n    }\n\n    function incrementResourceId() onlyLogicAddress public {\n        newResourceId++;\n    }\n\n    function decrementResourceId() onlyLogicAddress public {\n        newResourceId--;\n    }\n\n    function emitEventLikeUrl(bytes32 urlHash) onlyLogicAddress public {\n        emit EventLikeUrl(urlHash);\n    }\n\n    function emitEventLikeResource(uint resourceType, bytes32 resourceIdHash) onlyLogicAddress public {\n        emit EventLikeResource(resourceType, resourceIdHash);\n    }\n\n    function emitEventResourceTypeCreated(uint resourceType, bytes32 usernameHash) onlyLogicAddress public {\n        emit EventResourceTypeCreated(resourceType, usernameHash);\n    }\n}\n",
  "sourcePath": "/Users/sdancer/web/like/smart/contracts/LikeStorage.sol",
  "compiler": {
    "name": "solc",
    "version": "0.6.4+commit.1dca32f3.Emscripten.clang"
  },
  "schemaVersion": "3.1.0",
  "updatedAt": "2020-06-20T13:44:21.119Z",
  "devdoc": {
    "methods": {}
  },
  "userdoc": {
    "methods": {}
  }
}