{
  "contractName": "LikeLogic",
  "abi": [
    {
      "inputs": [
        {
          "internalType": "contract LikeStorage",
          "name": "_likeStorage",
          "type": "address"
        },
        {
          "internalType": "contract GetLoginStorage",
          "name": "_GLStorage",
          "type": "address"
        }
      ],
      "stateMutability": "nonpayable",
      "type": "constructor"
    },
    {
      "inputs": [],
      "name": "GLStorage",
      "outputs": [
        {
          "internalType": "contract GetLoginStorage",
          "name": "",
          "type": "address"
        }
      ],
      "stateMutability": "view",
      "type": "function"
    },
    {
      "inputs": [],
      "name": "likeStorage",
      "outputs": [
        {
          "internalType": "contract LikeStorage",
          "name": "",
          "type": "address"
        }
      ],
      "stateMutability": "view",
      "type": "function"
    },
    {
      "inputs": [],
      "name": "owner",
      "outputs": [
        {
          "internalType": "address",
          "name": "",
          "type": "address"
        }
      ],
      "stateMutability": "view",
      "type": "function"
    },
    {
      "inputs": [
        {
          "internalType": "contract LikeStorage",
          "name": "_storageAddress",
          "type": "address"
        }
      ],
      "name": "setLikeStorage",
      "outputs": [],
      "stateMutability": "nonpayable",
      "type": "function"
    },
    {
      "inputs": [
        {
          "internalType": "contract GetLoginStorage",
          "name": "_storageAddress",
          "type": "address"
        }
      ],
      "name": "setGLStorage",
      "outputs": [],
      "stateMutability": "nonpayable",
      "type": "function"
    },
    {
      "inputs": [
        {
          "internalType": "address",
          "name": "_address",
          "type": "address"
        }
      ],
      "name": "setOwner",
      "outputs": [],
      "stateMutability": "nonpayable",
      "type": "function"
    },
    {
      "inputs": [
        {
          "internalType": "string",
          "name": "title",
          "type": "string"
        },
        {
          "internalType": "string",
          "name": "description",
          "type": "string"
        },
        {
          "internalType": "string",
          "name": "url",
          "type": "string"
        }
      ],
      "name": "createResourceType",
      "outputs": [],
      "stateMutability": "nonpayable",
      "type": "function"
    },
    {
      "inputs": [
        {
          "internalType": "uint256",
          "name": "id",
          "type": "uint256"
        },
        {
          "internalType": "string",
          "name": "title",
          "type": "string"
        },
        {
          "internalType": "string",
          "name": "description",
          "type": "string"
        },
        {
          "internalType": "string",
          "name": "url",
          "type": "string"
        }
      ],
      "name": "editResourceType",
      "outputs": [],
      "stateMutability": "nonpayable",
      "type": "function"
    },
    {
      "inputs": [
        {
          "internalType": "uint256",
          "name": "resourceTypeId",
          "type": "uint256"
        },
        {
          "internalType": "bytes32",
          "name": "resourceIdHash",
          "type": "bytes32"
        },
        {
          "internalType": "address payable",
          "name": "donateAddress",
          "type": "address"
        }
      ],
      "name": "like",
      "outputs": [],
      "stateMutability": "payable",
      "type": "function"
    },
    {
      "inputs": [
        {
          "internalType": "uint256",
          "name": "resourceTypeId",
          "type": "uint256"
        },
        {
          "internalType": "bytes32",
          "name": "resourceIdHash",
          "type": "bytes32"
        }
      ],
      "name": "unlike",
      "outputs": [],
      "stateMutability": "nonpayable",
      "type": "function"
    },
    {
      "inputs": [
        {
          "internalType": "bytes32",
          "name": "urlHash",
          "type": "bytes32"
        },
        {
          "internalType": "address payable",
          "name": "donateAddress",
          "type": "address"
        }
      ],
      "name": "likeUrl",
      "outputs": [],
      "stateMutability": "payable",
      "type": "function"
    },
    {
      "inputs": [
        {
          "internalType": "bytes32",
          "name": "urlHash",
          "type": "bytes32"
        }
      ],
      "name": "unlikeUrl",
      "outputs": [],
      "stateMutability": "payable",
      "type": "function"
    },
    {
      "inputs": [
        {
          "internalType": "bytes32",
          "name": "usernameHash",
          "type": "bytes32"
        },
        {
          "internalType": "uint256",
          "name": "resourceTypeId",
          "type": "uint256"
        },
        {
          "internalType": "bytes32",
          "name": "resourceIdHash",
          "type": "bytes32"
        }
      ],
      "name": "getUserLikeResourceKey",
      "outputs": [
        {
          "internalType": "bytes32",
          "name": "",
          "type": "bytes32"
        }
      ],
      "stateMutability": "view",
      "type": "function"
    },
    {
      "inputs": [
        {
          "internalType": "bytes32",
          "name": "usernameHash",
          "type": "bytes32"
        },
        {
          "internalType": "bytes32",
          "name": "urlHash",
          "type": "bytes32"
        }
      ],
      "name": "getUserLikeUrlKey",
      "outputs": [
        {
          "internalType": "bytes32",
          "name": "",
          "type": "bytes32"
        }
      ],
      "stateMutability": "view",
      "type": "function"
    },
    {
      "inputs": [
        {
          "internalType": "uint256",
          "name": "resourceTypeId",
          "type": "uint256"
        },
        {
          "internalType": "bytes32",
          "name": "resourceIdHash",
          "type": "bytes32"
        }
      ],
      "name": "getResourceIdKey",
      "outputs": [
        {
          "internalType": "bytes32",
          "name": "",
          "type": "bytes32"
        }
      ],
      "stateMutability": "view",
      "type": "function"
    },
    {
      "inputs": [
        {
          "internalType": "bytes32",
          "name": "urlHash",
          "type": "bytes32"
        }
      ],
      "name": "getUrlHashKey",
      "outputs": [
        {
          "internalType": "bytes32",
          "name": "",
          "type": "bytes32"
        }
      ],
      "stateMutability": "view",
      "type": "function"
    },
    {
      "inputs": [
        {
          "internalType": "address",
          "name": "_address",
          "type": "address"
        }
      ],
      "name": "getGLUsernameHash",
      "outputs": [
        {
          "internalType": "bytes32",
          "name": "",
          "type": "bytes32"
        }
      ],
      "stateMutability": "view",
      "type": "function"
    },
    {
      "inputs": [
        {
          "internalType": "uint256",
          "name": "resourceTypeId",
          "type": "uint256"
        },
        {
          "internalType": "bytes32",
          "name": "resourceIdHash",
          "type": "bytes32"
        }
      ],
      "name": "getResourceIdStatistics",
      "outputs": [
        {
          "components": [
            {
              "internalType": "uint256",
              "name": "resourceTypeId",
              "type": "uint256"
            },
            {
              "internalType": "bytes32",
              "name": "resourceIdHash",
              "type": "bytes32"
            },
            {
              "internalType": "bytes32",
              "name": "urlHash",
              "type": "bytes32"
            },
            {
              "internalType": "uint256",
              "name": "reactions",
              "type": "uint256"
            },
            {
              "internalType": "uint256",
              "name": "donates",
              "type": "uint256"
            },
            {
              "internalType": "bool",
              "name": "isActive",
              "type": "bool"
            }
          ],
          "internalType": "struct LikeStorage.ResourceIdStatistics",
          "name": "",
          "type": "tuple"
        }
      ],
      "stateMutability": "view",
      "type": "function"
    },
    {
      "inputs": [
        {
          "internalType": "bytes32",
          "name": "urlHash",
          "type": "bytes32"
        }
      ],
      "name": "getResourceIdStatisticsUrl",
      "outputs": [
        {
          "components": [
            {
              "internalType": "uint256",
              "name": "resourceTypeId",
              "type": "uint256"
            },
            {
              "internalType": "bytes32",
              "name": "resourceIdHash",
              "type": "bytes32"
            },
            {
              "internalType": "bytes32",
              "name": "urlHash",
              "type": "bytes32"
            },
            {
              "internalType": "uint256",
              "name": "reactions",
              "type": "uint256"
            },
            {
              "internalType": "uint256",
              "name": "donates",
              "type": "uint256"
            },
            {
              "internalType": "bool",
              "name": "isActive",
              "type": "bool"
            }
          ],
          "internalType": "struct LikeStorage.ResourceIdStatistics",
          "name": "",
          "type": "tuple"
        }
      ],
      "stateMutability": "view",
      "type": "function"
    },
    {
      "inputs": [
        {
          "internalType": "bytes32",
          "name": "usernameHash",
          "type": "bytes32"
        },
        {
          "internalType": "bytes32",
          "name": "urlHash",
          "type": "bytes32"
        }
      ],
      "name": "getUserStatisticsUrl",
      "outputs": [
        {
          "components": [
            {
              "components": [
                {
                  "internalType": "uint256",
                  "name": "resourceTypeId",
                  "type": "uint256"
                },
                {
                  "internalType": "bytes32",
                  "name": "resourceIdHash",
                  "type": "bytes32"
                },
                {
                  "internalType": "bytes32",
                  "name": "urlHash",
                  "type": "bytes32"
                },
                {
                  "internalType": "uint256",
                  "name": "reactions",
                  "type": "uint256"
                },
                {
                  "internalType": "uint256",
                  "name": "donates",
                  "type": "uint256"
                },
                {
                  "internalType": "bool",
                  "name": "isActive",
                  "type": "bool"
                }
              ],
              "internalType": "struct LikeStorage.ResourceIdStatistics",
              "name": "resourceStatistics",
              "type": "tuple"
            },
            {
              "internalType": "bytes32",
              "name": "usernameHash",
              "type": "bytes32"
            },
            {
              "internalType": "bool",
              "name": "isLiked",
              "type": "bool"
            }
          ],
          "internalType": "struct LikeLogic.UserStatistics",
          "name": "",
          "type": "tuple"
        }
      ],
      "stateMutability": "view",
      "type": "function"
    },
    {
      "inputs": [
        {
          "internalType": "bytes32",
          "name": "usernameHash",
          "type": "bytes32"
        },
        {
          "internalType": "uint256",
          "name": "resourceTypeId",
          "type": "uint256"
        },
        {
          "internalType": "bytes32",
          "name": "resourceIdHash",
          "type": "bytes32"
        }
      ],
      "name": "getUserStatisticsResource",
      "outputs": [
        {
          "components": [
            {
              "components": [
                {
                  "internalType": "uint256",
                  "name": "resourceTypeId",
                  "type": "uint256"
                },
                {
                  "internalType": "bytes32",
                  "name": "resourceIdHash",
                  "type": "bytes32"
                },
                {
                  "internalType": "bytes32",
                  "name": "urlHash",
                  "type": "bytes32"
                },
                {
                  "internalType": "uint256",
                  "name": "reactions",
                  "type": "uint256"
                },
                {
                  "internalType": "uint256",
                  "name": "donates",
                  "type": "uint256"
                },
                {
                  "internalType": "bool",
                  "name": "isActive",
                  "type": "bool"
                }
              ],
              "internalType": "struct LikeStorage.ResourceIdStatistics",
              "name": "resourceStatistics",
              "type": "tuple"
            },
            {
              "internalType": "bytes32",
              "name": "usernameHash",
              "type": "bytes32"
            },
            {
              "internalType": "bool",
              "name": "isLiked",
              "type": "bool"
            }
          ],
          "internalType": "struct LikeLogic.UserStatistics",
          "name": "",
          "type": "tuple"
        }
      ],
      "stateMutability": "view",
      "type": "function"
    },
    {
      "inputs": [
        {
          "internalType": "uint256",
          "name": "key",
          "type": "uint256"
        }
      ],
      "name": "validateGetResourceType",
      "outputs": [
        {
          "components": [
            {
              "internalType": "uint256",
              "name": "id",
              "type": "uint256"
            },
            {
              "internalType": "string",
              "name": "title",
              "type": "string"
            },
            {
              "internalType": "string",
              "name": "description",
              "type": "string"
            },
            {
              "internalType": "string",
              "name": "url",
              "type": "string"
            },
            {
              "internalType": "uint256",
              "name": "reactions",
              "type": "uint256"
            },
            {
              "internalType": "uint256",
              "name": "donates",
              "type": "uint256"
            },
            {
              "internalType": "bytes32",
              "name": "ownerUsernameHash",
              "type": "bytes32"
            },
            {
              "internalType": "bool",
              "name": "isActive",
              "type": "bool"
            }
          ],
          "internalType": "struct LikeStorage.ResourceType",
          "name": "",
          "type": "tuple"
        }
      ],
      "stateMutability": "view",
      "type": "function"
    }
  ],
  "bytecode": "0x60806040523480156200001157600080fd5b50604051620038873803806200388783398181016040528101906200003791906200016b565b62000048826200007260201b60201c565b6200005933620000b560201b60201c565b6200006a81620000f960201b60201c565b50506200023c565b806000806101000a81548173ffffffffffffffffffffffffffffffffffffffff021916908373ffffffffffffffffffffffffffffffffffffffff16021790555050565b80600260006101000a81548173ffffffffffffffffffffffffffffffffffffffff021916908373ffffffffffffffffffffffffffffffffffffffff16021790555050565b80600160006101000a81548173ffffffffffffffffffffffffffffffffffffffff021916908373ffffffffffffffffffffffffffffffffffffffff16021790555050565b6000815190506200014e8162000208565b92915050565b600081519050620001658162000222565b92915050565b600080604083850312156200017f57600080fd5b60006200018f8582860162000154565b9250506020620001a2858286016200013d565b9150509250929050565b6000620001b982620001e8565b9050919050565b6000620001cd82620001ac565b9050919050565b6000620001e182620001ac565b9050919050565b600073ffffffffffffffffffffffffffffffffffffffff82169050919050565b6200021381620001c0565b81146200021f57600080fd5b50565b6200022d81620001d4565b81146200023957600080fd5b50565b61363b806200024c6000396000f3fe6080604052600436106101355760003560e01c806367a305a9116100ab57806396d93fb41161006f57806396d93fb41461040d578063b695467b14610436578063e481dfbb14610473578063e7c23716146104b0578063ed4b3cdd146104ed578063fa3e07041461052a57610135565b806367a305a9146103375780636f7a56ec1461035357806370257e9a146103905780638b43124a146103b95780638da5cb5b146103e257610135565b806337196019116100fd57806337196019146102105780633930206a1461022c57806347ec28e3146102555780635298923d1461028057806356294dd5146102bd578063654933ae146102fa57610135565b806302cc89ab1461013a5780630d0586e21461015657806313af4035146101935780632018319a146101bc5780632f13db83146101e7575b600080fd5b610154600480360381019061014f9190612671565b610567565b005b34801561016257600080fd5b5061017d60048036038101906101789190612671565b61070f565b60405161018a91906132c2565b60405180910390f35b34801561019f57600080fd5b506101ba60048036038101906101b591906125f6565b6107d6565b005b3480156101c857600080fd5b506101d1610872565b6040516101de9190613064565b60405180910390f35b3480156101f357600080fd5b5061020e6004803603810190610209919061292f565b610898565b005b61022a600480360381019061022591906126c3565b610ba9565b005b34801561023857600080fd5b50610253600480360381019061024e91906127dc565b610de9565b005b34801561026157600080fd5b5061026a611087565b604051610277919061307f565b60405180910390f35b34801561028c57600080fd5b506102a760048036038101906102a2919061292f565b6110ac565b6040516102b491906132c2565b60405180910390f35b3480156102c957600080fd5b506102e460048036038101906102df919061273b565b611175565b6040516102f191906132ff565b60405180910390f35b34801561030657600080fd5b50610321600480360381019061031c91906128dd565b61125f565b60405161032e91906132dd565b60405180910390f35b610351600480360381019061034c919061296b565b61136d565b005b34801561035f57600080fd5b5061037a600480360381019061037591906125f6565b6115bc565b6040516103879190612ff7565b60405180910390f35b34801561039c57600080fd5b506103b760048036038101906103b2919061278a565b6116ed565b005b3480156103c557600080fd5b506103e060048036038101906103db91906127b3565b611789565b005b3480156103ee57600080fd5b506103f7611825565b6040516104049190612fdc565b60405180910390f35b34801561041957600080fd5b50610434600480360381019061042f91906129ba565b61184b565b005b34801561044257600080fd5b5061045d600480360381019061045891906126ff565b611962565b60405161046a9190612ff7565b60405180910390f35b34801561047f57600080fd5b5061049a6004803603810190610495919061273b565b611995565b6040516104a79190612ff7565b60405180910390f35b3480156104bc57600080fd5b506104d760048036038101906104d29190612671565b6119cb565b6040516104e49190612ff7565b60405180910390f35b3480156104f957600080fd5b50610514600480360381019061050f91906126ff565b6119fb565b60405161052191906132ff565b60405180910390f35b34801561053657600080fd5b50610551600480360381019061054c919061292f565b611ae2565b60405161055e9190612ff7565b60405180910390f35b6000610572336115bc565b905060006105808284611962565b9050600115156000809054906101000a900473ffffffffffffffffffffffffffffffffffffffff1673ffffffffffffffffffffffffffffffffffffffff166383c51743836040518263ffffffff1660e01b81526004016105e09190612ff7565b60206040518083038186803b1580156105f857600080fd5b505afa15801561060c573d6000803e3d6000fd5b505050506040513d601f19601f820116820180604052508101906106309190612648565b151514610672576040517f08c379a0000000000000000000000000000000000000000000000000000000008152600401610669906130da565b60405180910390fd5b6000809054906101000a900473ffffffffffffffffffffffffffffffffffffffff1673ffffffffffffffffffffffffffffffffffffffff16634b66e5c38260006040518363ffffffff1660e01b81526004016106cf929190613012565b600060405180830381600087803b1580156106e957600080fd5b505af11580156106fd573d6000803e3d6000fd5b5050505061070a83611b15565b505050565b6107176121e0565b6000610722836119cb565b90506000809054906101000a900473ffffffffffffffffffffffffffffffffffffffff1673ffffffffffffffffffffffffffffffffffffffff1663cf87be3d826040518263ffffffff1660e01b815260040161077e9190612ff7565b60c06040518083038186803b15801561079657600080fd5b505afa1580156107aa573d6000803e3d6000fd5b505050506040513d601f19601f820116820180604052508101906107ce9190612873565b915050919050565b600260009054906101000a900473ffffffffffffffffffffffffffffffffffffffff1673ffffffffffffffffffffffffffffffffffffffff163373ffffffffffffffffffffffffffffffffffffffff1614610866576040517f08c379a000000000000000000000000000000000000000000000000000000000815260040161085d906130ba565b60405180910390fd5b61086f81611c95565b50565b600160009054906101000a900473ffffffffffffffffffffffffffffffffffffffff1681565b6108a061221e565b6108a98361125f565b905060006108b6336115bc565b905060006108c48585611ae2565b905060006108d3838787611995565b90506000809054906101000a900473ffffffffffffffffffffffffffffffffffffffff1673ffffffffffffffffffffffffffffffffffffffff166383c51743826040518263ffffffff1660e01b815260040161092f9190612ff7565b60206040518083038186803b15801561094757600080fd5b505afa15801561095b573d6000803e3d6000fd5b505050506040513d601f19601f8201168201806040525081019061097f9190612648565b6109be576040517f08c379a00000000000000000000000000000000000000000000000000000000081526004016109b5906130da565b60405180910390fd5b6000809054906101000a900473ffffffffffffffffffffffffffffffffffffffff1673ffffffffffffffffffffffffffffffffffffffff16634b66e5c38260006040518363ffffffff1660e01b8152600401610a1b929190613012565b600060405180830381600087803b158015610a3557600080fd5b505af1158015610a49573d6000803e3d6000fd5b50505050610a556121e0565b6000809054906101000a900473ffffffffffffffffffffffffffffffffffffffff1673ffffffffffffffffffffffffffffffffffffffff1663cf87be3d846040518263ffffffff1660e01b8152600401610aaf9190612ff7565b60c06040518083038186803b158015610ac757600080fd5b505afa158015610adb573d6000803e3d6000fd5b505050506040513d601f19601f82011682018060405250810190610aff9190612873565b905080606001805180919060019003815250506000809054906101000a900473ffffffffffffffffffffffffffffffffffffffff1673ffffffffffffffffffffffffffffffffffffffff16639eca1c9084836040518363ffffffff1660e01b8152600401610b6e92919061303b565b600060405180830381600087803b158015610b8857600080fd5b505af1158015610b9c573d6000803e3d6000fd5b5050505050505050505050565b6000610bb4336115bc565b90506000610bc28285611962565b9050600015156000809054906101000a900473ffffffffffffffffffffffffffffffffffffffff1673ffffffffffffffffffffffffffffffffffffffff166383c51743836040518263ffffffff1660e01b8152600401610c229190612ff7565b60206040518083038186803b158015610c3a57600080fd5b505afa158015610c4e573d6000803e3d6000fd5b505050506040513d601f19601f82011682018060405250810190610c729190612648565b151514610cb4576040517f08c379a0000000000000000000000000000000000000000000000000000000008152600401610cab906132a2565b60405180910390fd5b6000809054906101000a900473ffffffffffffffffffffffffffffffffffffffff1673ffffffffffffffffffffffffffffffffffffffff16634b66e5c38260016040518363ffffffff1660e01b8152600401610d11929190613012565b600060405180830381600087803b158015610d2b57600080fd5b505af1158015610d3f573d6000803e3d6000fd5b50505050610d4d8434611cd9565b610d573484611e69565b6000809054906101000a900473ffffffffffffffffffffffffffffffffffffffff1673ffffffffffffffffffffffffffffffffffffffff16633103f290856040518263ffffffff1660e01b8152600401610db19190612ff7565b600060405180830381600087803b158015610dcb57600080fd5b505af1158015610ddf573d6000803e3d6000fd5b5050505050505050565b6000610df4336115bc565b905060008060009054906101000a900473ffffffffffffffffffffffffffffffffffffffff1673ffffffffffffffffffffffffffffffffffffffff166309dccea96040518163ffffffff1660e01b815260040160206040518083038186803b158015610e5f57600080fd5b505afa158015610e73573d6000803e3d6000fd5b505050506040513d601f19601f82011682018060405250810190610e979190612906565b9050610ea161221e565b60405180610100016040528083815260200187815260200186815260200185815260200160008152602001600081526020018481526020016001151581525090506000809054906101000a900473ffffffffffffffffffffffffffffffffffffffff1673ffffffffffffffffffffffffffffffffffffffff1663da58ea5c83836040518363ffffffff1660e01b8152600401610f3e92919061335f565b600060405180830381600087803b158015610f5857600080fd5b505af1158015610f6c573d6000803e3d6000fd5b505050506000809054906101000a900473ffffffffffffffffffffffffffffffffffffffff1673ffffffffffffffffffffffffffffffffffffffff1663b84b70cc6040518163ffffffff1660e01b8152600401600060405180830381600087803b158015610fd957600080fd5b505af1158015610fed573d6000803e3d6000fd5b505050506000809054906101000a900473ffffffffffffffffffffffffffffffffffffffff1673ffffffffffffffffffffffffffffffffffffffff1663ce40c37183856040518363ffffffff1660e01b815260040161104d929190613336565b600060405180830381600087803b15801561106757600080fd5b505af115801561107b573d6000803e3d6000fd5b50505050505050505050565b6000809054906101000a900473ffffffffffffffffffffffffffffffffffffffff1681565b6110b46121e0565b60006110c08484611ae2565b90506000809054906101000a900473ffffffffffffffffffffffffffffffffffffffff1673ffffffffffffffffffffffffffffffffffffffff1663cf87be3d826040518263ffffffff1660e01b815260040161111c9190612ff7565b60c06040518083038186803b15801561113457600080fd5b505afa158015611148573d6000803e3d6000fd5b505050506040513d601f19601f8201168201806040525081019061116c9190612873565b91505092915050565b61117d612268565b604051806060016040528061119285856110ac565b81526020018581526020016000809054906101000a900473ffffffffffffffffffffffffffffffffffffffff1673ffffffffffffffffffffffffffffffffffffffff166383c517436111e5888888611995565b6040518263ffffffff1660e01b81526004016112019190612ff7565b60206040518083038186803b15801561121957600080fd5b505afa15801561122d573d6000803e3d6000fd5b505050506040513d601f19601f820116820180604052508101906112519190612648565b151581525090509392505050565b61126761221e565b61126f61221e565b6000809054906101000a900473ffffffffffffffffffffffffffffffffffffffff1673ffffffffffffffffffffffffffffffffffffffff16638a497b05846040518263ffffffff1660e01b81526004016112c9919061331b565b60006040518083038186803b1580156112e157600080fd5b505afa1580156112f5573d6000803e3d6000fd5b505050506040513d6000823e3d601f19601f8201168201806040525081019061131e919061289c565b90508060e00151611364576040517f08c379a000000000000000000000000000000000000000000000000000000000815260040161135b9061309a565b60405180910390fd5b80915050919050565b6000611378336115bc565b90506000611387828686611995565b9050600015156000809054906101000a900473ffffffffffffffffffffffffffffffffffffffff1673ffffffffffffffffffffffffffffffffffffffff166383c51743836040518263ffffffff1660e01b81526004016113e79190612ff7565b60206040518083038186803b1580156113ff57600080fd5b505afa158015611413573d6000803e3d6000fd5b505050506040513d601f19601f820116820180604052508101906114379190612648565b151514611479576040517f08c379a0000000000000000000000000000000000000000000000000000000008152600401611470906132a2565b60405180910390fd5b6000809054906101000a900473ffffffffffffffffffffffffffffffffffffffff1673ffffffffffffffffffffffffffffffffffffffff16634b66e5c38260016040518363ffffffff1660e01b81526004016114d6929190613012565b600060405180830381600087803b1580156114f057600080fd5b505af1158015611504573d6000803e3d6000fd5b505050506115128534611ef7565b61151d858534611fbd565b6115273484611e69565b6000809054906101000a900473ffffffffffffffffffffffffffffffffffffffff1673ffffffffffffffffffffffffffffffffffffffff1663ade505d586866040518363ffffffff1660e01b8152600401611583929190613336565b600060405180830381600087803b15801561159d57600080fd5b505af11580156115b1573d6000803e3d6000fd5b505050505050505050565b6000600160009054906101000a900473ffffffffffffffffffffffffffffffffffffffff1673ffffffffffffffffffffffffffffffffffffffff16639c1fcc4c6040518163ffffffff1660e01b815260040160206040518083038186803b15801561162657600080fd5b505afa15801561163a573d6000803e3d6000fd5b505050506040513d601f19601f8201168201806040525081019061165e919061261f565b73ffffffffffffffffffffffffffffffffffffffff1663ed1a998d836040518263ffffffff1660e01b81526004016116969190612fdc565b60206040518083038186803b1580156116ae57600080fd5b505afa1580156116c2573d6000803e3d6000fd5b505050506040513d601f19601f820116820180604052508101906116e6919061269a565b9050919050565b600260009054906101000a900473ffffffffffffffffffffffffffffffffffffffff1673ffffffffffffffffffffffffffffffffffffffff163373ffffffffffffffffffffffffffffffffffffffff161461177d576040517f08c379a0000000000000000000000000000000000000000000000000000000008152600401611774906130ba565b60405180910390fd5b61178681612159565b50565b600260009054906101000a900473ffffffffffffffffffffffffffffffffffffffff1673ffffffffffffffffffffffffffffffffffffffff163373ffffffffffffffffffffffffffffffffffffffff1614611819576040517f08c379a0000000000000000000000000000000000000000000000000000000008152600401611810906130ba565b60405180910390fd5b6118228161219d565b50565b600260009054906101000a900473ffffffffffffffffffffffffffffffffffffffff1681565b6000611856336115bc565b905061186061221e565b6118698661125f565b9050818160c00151146118b1576040517f08c379a00000000000000000000000000000000000000000000000000000000081526004016118a8906130fa565b60405180910390fd5b8481602001819052508381604001819052508281606001819052506000809054906101000a900473ffffffffffffffffffffffffffffffffffffffff1673ffffffffffffffffffffffffffffffffffffffff1663da58ea5c87836040518363ffffffff1660e01b815260040161192892919061335f565b600060405180830381600087803b15801561194257600080fd5b505af1158015611956573d6000803e3d6000fd5b50505050505050505050565b6000828260405160200161197792919061319d565b60405160208183030381529060405280519060200120905092915050565b60008383836040516020016119ac9392919061311a565b6040516020818303038152906040528051906020012090509392505050565b6000816040516020016119de9190613261565b604051602081830303815290604052805190602001209050919050565b611a03612268565b6040518060600160405280611a178461070f565b81526020018481526020016000809054906101000a900473ffffffffffffffffffffffffffffffffffffffff1673ffffffffffffffffffffffffffffffffffffffff166383c51743611a698787611962565b6040518263ffffffff1660e01b8152600401611a859190612ff7565b60206040518083038186803b158015611a9d57600080fd5b505afa158015611ab1573d6000803e3d6000fd5b505050506040513d601f19601f82011682018060405250810190611ad59190612648565b1515815250905092915050565b60008282604051602001611af79291906131ff565b60405160208183030381529060405280519060200120905092915050565b6000611b20826119cb565b9050611b2a6121e0565b6000809054906101000a900473ffffffffffffffffffffffffffffffffffffffff1673ffffffffffffffffffffffffffffffffffffffff1663cf87be3d836040518263ffffffff1660e01b8152600401611b849190612ff7565b60c06040518083038186803b158015611b9c57600080fd5b505afa158015611bb0573d6000803e3d6000fd5b505050506040513d601f19601f82011682018060405250810190611bd49190612873565b905080606001805180919060019003815250508281604001818152505060018160a00190151590811515815250506000809054906101000a900473ffffffffffffffffffffffffffffffffffffffff1673ffffffffffffffffffffffffffffffffffffffff16639eca1c9083836040518363ffffffff1660e01b8152600401611c5e92919061303b565b600060405180830381600087803b158015611c7857600080fd5b505af1158015611c8c573d6000803e3d6000fd5b50505050505050565b80600260006101000a81548173ffffffffffffffffffffffffffffffffffffffff021916908373ffffffffffffffffffffffffffffffffffffffff16021790555050565b6000611ce4836119cb565b9050611cee6121e0565b6000809054906101000a900473ffffffffffffffffffffffffffffffffffffffff1673ffffffffffffffffffffffffffffffffffffffff1663cf87be3d836040518263ffffffff1660e01b8152600401611d489190612ff7565b60c06040518083038186803b158015611d6057600080fd5b505afa158015611d74573d6000803e3d6000fd5b505050506040513d601f19601f82011682018060405250810190611d989190612873565b905080606001805180919060010181525050828160800181815101915081815250508381604001818152505060018160a00190151590811515815250506000809054906101000a900473ffffffffffffffffffffffffffffffffffffffff1673ffffffffffffffffffffffffffffffffffffffff16639eca1c9083836040518363ffffffff1660e01b8152600401611e3192919061303b565b600060405180830381600087803b158015611e4b57600080fd5b505af1158015611e5f573d6000803e3d6000fd5b5050505050505050565b600082118015611ea65750600073ffffffffffffffffffffffffffffffffffffffff168173ffffffffffffffffffffffffffffffffffffffff1614155b15611ef3578073ffffffffffffffffffffffffffffffffffffffff166108fc349081150290604051600060405180830381858888f19350505050158015611ef1573d6000803e3d6000fd5b505b5050565b611eff61221e565b611f088361125f565b9050818160a0018181510191508181525050806080018051809190600101815250506000809054906101000a900473ffffffffffffffffffffffffffffffffffffffff1673ffffffffffffffffffffffffffffffffffffffff1663da58ea5c84836040518363ffffffff1660e01b8152600401611f8692919061335f565b600060405180830381600087803b158015611fa057600080fd5b505af1158015611fb4573d6000803e3d6000fd5b50505050505050565b6000611fc98484611ae2565b9050611fd36121e0565b6000809054906101000a900473ffffffffffffffffffffffffffffffffffffffff1673ffffffffffffffffffffffffffffffffffffffff1663cf87be3d836040518263ffffffff1660e01b815260040161202d9190612ff7565b60c06040518083038186803b15801561204557600080fd5b505afa158015612059573d6000803e3d6000fd5b505050506040513d601f19601f8201168201806040525081019061207d9190612873565b90508481600001818152505080606001805180919060010181525050828160800181815101915081815250508381602001818152505060018160a00190151590811515815250506000809054906101000a900473ffffffffffffffffffffffffffffffffffffffff1673ffffffffffffffffffffffffffffffffffffffff16639eca1c9083836040518363ffffffff1660e01b815260040161212092919061303b565b600060405180830381600087803b15801561213a57600080fd5b505af115801561214e573d6000803e3d6000fd5b505050505050505050565b80600160006101000a81548173ffffffffffffffffffffffffffffffffffffffff021916908373ffffffffffffffffffffffffffffffffffffffff16021790555050565b806000806101000a81548173ffffffffffffffffffffffffffffffffffffffff021916908373ffffffffffffffffffffffffffffffffffffffff16021790555050565b6040518060c0016040528060008152602001600080191681526020016000801916815260200160008152602001600081526020016000151581525090565b604051806101000160405280600081526020016060815260200160608152602001606081526020016000815260200160008152602001600080191681526020016000151581525090565b604051806060016040528061227b612294565b8152602001600080191681526020016000151581525090565b6040518060c0016040528060008152602001600080191681526020016000801916815260200160008152602001600081526020016000151581525090565b6000813590506122e181613564565b92915050565b6000815190506122f681613564565b92915050565b60008135905061230b8161357b565b92915050565b60008151905061232081613592565b92915050565b600081359050612335816135a9565b92915050565b60008151905061234a816135a9565b92915050565b60008135905061235f816135c0565b92915050565b600081359050612374816135d7565b92915050565b600082601f83011261238b57600080fd5b815161239e612399826133bc565b61338f565b915080825260208301602083018583830111156123ba57600080fd5b6123c5838284613520565b50505092915050565b600082601f8301126123df57600080fd5b81356123f26123ed826133e8565b61338f565b9150808252602083016020830185838301111561240e57600080fd5b612419838284613511565b50505092915050565b600060c0828403121561243457600080fd5b61243e60c061338f565b9050600061244e848285016125e1565b60008301525060206124628482850161233b565b60208301525060406124768482850161233b565b604083015250606061248a848285016125e1565b606083015250608061249e848285016125e1565b60808301525060a06124b284828501612311565b60a08301525092915050565b600061010082840312156124d157600080fd5b6124dc61010061338f565b905060006124ec848285016125e1565b600083015250602082015167ffffffffffffffff81111561250c57600080fd5b6125188482850161237a565b602083015250604082015167ffffffffffffffff81111561253857600080fd5b6125448482850161237a565b604083015250606082015167ffffffffffffffff81111561256457600080fd5b6125708482850161237a565b6060830152506080612584848285016125e1565b60808301525060a0612598848285016125e1565b60a08301525060c06125ac8482850161233b565b60c08301525060e06125c084828501612311565b60e08301525092915050565b6000813590506125db816135ee565b92915050565b6000815190506125f0816135ee565b92915050565b60006020828403121561260857600080fd5b6000612616848285016122d2565b91505092915050565b60006020828403121561263157600080fd5b600061263f848285016122e7565b91505092915050565b60006020828403121561265a57600080fd5b600061266884828501612311565b91505092915050565b60006020828403121561268357600080fd5b600061269184828501612326565b91505092915050565b6000602082840312156126ac57600080fd5b60006126ba8482850161233b565b91505092915050565b600080604083850312156126d657600080fd5b60006126e485828601612326565b92505060206126f5858286016122fc565b9150509250929050565b6000806040838503121561271257600080fd5b600061272085828601612326565b925050602061273185828601612326565b9150509250929050565b60008060006060848603121561275057600080fd5b600061275e86828701612326565b935050602061276f868287016125cc565b925050604061278086828701612326565b9150509250925092565b60006020828403121561279c57600080fd5b60006127aa84828501612350565b91505092915050565b6000602082840312156127c557600080fd5b60006127d384828501612365565b91505092915050565b6000806000606084860312156127f157600080fd5b600084013567ffffffffffffffff81111561280b57600080fd5b612817868287016123ce565b935050602084013567ffffffffffffffff81111561283457600080fd5b612840868287016123ce565b925050604084013567ffffffffffffffff81111561285d57600080fd5b612869868287016123ce565b9150509250925092565b600060c0828403121561288557600080fd5b600061289384828501612422565b91505092915050565b6000602082840312156128ae57600080fd5b600082015167ffffffffffffffff8111156128c857600080fd5b6128d4848285016124be565b91505092915050565b6000602082840312156128ef57600080fd5b60006128fd848285016125cc565b91505092915050565b60006020828403121561291857600080fd5b6000612926848285016125e1565b91505092915050565b6000806040838503121561294257600080fd5b6000612950858286016125cc565b925050602061296185828601612326565b9150509250929050565b60008060006060848603121561298057600080fd5b600061298e868287016125cc565b935050602061299f86828701612326565b92505060406129b0868287016122fc565b9150509250925092565b600080600080608085870312156129d057600080fd5b60006129de878288016125cc565b945050602085013567ffffffffffffffff8111156129fb57600080fd5b612a07878288016123ce565b935050604085013567ffffffffffffffff811115612a2457600080fd5b612a30878288016123ce565b925050606085013567ffffffffffffffff811115612a4d57600080fd5b612a59878288016123ce565b91505092959194509250565b612a6e81613441565b82525050565b612a7d81613465565b82525050565b612a8c81613465565b82525050565b612a9b81613471565b82525050565b612aaa81613471565b82525050565b612ab9816134c9565b82525050565b612ac8816134ed565b82525050565b6000612ad982613414565b612ae3818561341f565b9350612af3818560208601613520565b612afc81613553565b840191505092915050565b6000612b14601783613430565b91507f5265736f757263652074797065206e6f7420666f756e640000000000000000006000830152602082019050919050565b6000612b54601783613430565b91507f43616c6c6572206973206e6f7420746865206f776e65720000000000000000006000830152602082019050919050565b6000612b94601b83613430565b91507f55736572206e6f74206c696b6564207468697320636f6e74656e7400000000006000830152602082019050919050565b6000612bd4601e83613430565b91507f446f206e6f7420686176652072696768747320666f722065646974696e6700006000830152602082019050919050565b6000612c14601383613430565b91507f757365725f6c696b655f7265736f757263655f000000000000000000000000006000830152602082019050919050565b6000612c54600e83613430565b91507f757365725f6c696b655f75726c5f0000000000000000000000000000000000006000830152602082019050919050565b6000612c94600c83613430565b91507f7265736f757263655f69645f00000000000000000000000000000000000000006000830152602082019050919050565b6000612cd4600983613430565b91507f75726c5f686173685f00000000000000000000000000000000000000000000006000830152602082019050919050565b6000612d14600d83613430565b91507f416c7265616479206c696b6564000000000000000000000000000000000000006000830152602082019050919050565b6000612d54600183613430565b91507f5f000000000000000000000000000000000000000000000000000000000000006000830152602082019050919050565b6000612d94600483613430565b91507f5f656e64000000000000000000000000000000000000000000000000000000006000830152602082019050919050565b60c082016000820151612ddd6000850182612fbe565b506020820151612df06020850182612a92565b506040820151612e036040850182612a92565b506060820151612e166060850182612fbe565b506080820151612e296080850182612fbe565b5060a0820151612e3c60a0850182612a74565b50505050565b60c082016000820151612e586000850182612fbe565b506020820151612e6b6020850182612a92565b506040820151612e7e6040850182612a92565b506060820151612e916060850182612fbe565b506080820151612ea46080850182612fbe565b5060a0820151612eb760a0850182612a74565b50505050565b600061010083016000830151612ed66000860182612fbe565b5060208301518482036020860152612eee8282612ace565b91505060408301518482036040860152612f088282612ace565b91505060608301518482036060860152612f228282612ace565b9150506080830151612f376080860182612fbe565b5060a0830151612f4a60a0860182612fbe565b5060c0830151612f5d60c0860182612a92565b5060e0830151612f7060e0860182612a74565b508091505092915050565b61010082016000820151612f926000850182612e42565b506020820151612fa560c0850182612a92565b506040820151612fb860e0850182612a74565b50505050565b612fc7816134bf565b82525050565b612fd6816134bf565b82525050565b6000602082019050612ff16000830184612a65565b92915050565b600060208201905061300c6000830184612aa1565b92915050565b60006040820190506130276000830185612aa1565b6130346020830184612a83565b9392505050565b600060e0820190506130506000830185612aa1565b61305d6020830184612dc7565b9392505050565b60006020820190506130796000830184612ab0565b92915050565b60006020820190506130946000830184612abf565b92915050565b600060208201905081810360008301526130b381612b07565b9050919050565b600060208201905081810360008301526130d381612b47565b9050919050565b600060208201905081810360008301526130f381612b87565b9050919050565b6000602082019050818103600083015261311381612bc7565b9050919050565b600060e082019050818103600083015261313381612c07565b90506131426020830186612aa1565b818103604083015261315381612d47565b90506131626060830185612fcd565b818103608083015261317381612d47565b905061318260a0830184612aa1565b81810360c083015261319381612d87565b9050949350505050565b600060a08201905081810360008301526131b681612c47565b90506131c56020830185612aa1565b81810360408301526131d681612d47565b90506131e56060830184612aa1565b81810360808301526131f681612d87565b90509392505050565b600060a082019050818103600083015261321881612c87565b90506132276020830185612fcd565b818103604083015261323881612d47565b90506132476060830184612aa1565b818103608083015261325881612d87565b90509392505050565b6000606082019050818103600083015261327a81612cc7565b90506132896020830184612aa1565b818103604083015261329a81612d87565b905092915050565b600060208201905081810360008301526132bb81612d07565b9050919050565b600060c0820190506132d76000830184612dc7565b92915050565b600060208201905081810360008301526132f78184612ebd565b905092915050565b6000610100820190506133156000830184612f7b565b92915050565b60006020820190506133306000830184612fcd565b92915050565b600060408201905061334b6000830185612fcd565b6133586020830184612aa1565b9392505050565b60006040820190506133746000830185612fcd565b81810360208301526133868184612ebd565b90509392505050565b6000604051905081810181811067ffffffffffffffff821117156133b257600080fd5b8060405250919050565b600067ffffffffffffffff8211156133d357600080fd5b601f19601f8301169050602081019050919050565b600067ffffffffffffffff8211156133ff57600080fd5b601f19601f8301169050602081019050919050565b600081519050919050565b600082825260208201905092915050565b600082825260208201905092915050565b600061344c8261349f565b9050919050565b600061345e8261349f565b9050919050565b60008115159050919050565b6000819050919050565b600061348682613441565b9050919050565b600061349882613441565b9050919050565b600073ffffffffffffffffffffffffffffffffffffffff82169050919050565b6000819050919050565b60006134d4826134db565b9050919050565b60006134e68261349f565b9050919050565b60006134f8826134ff565b9050919050565b600061350a8261349f565b9050919050565b82818337600083830152505050565b60005b8381101561353e578082015181840152602081019050613523565b8381111561354d576000848401525b50505050565b6000601f19601f8301169050919050565b61356d81613441565b811461357857600080fd5b50565b61358481613453565b811461358f57600080fd5b50565b61359b81613465565b81146135a657600080fd5b50565b6135b281613471565b81146135bd57600080fd5b50565b6135c98161347b565b81146135d457600080fd5b50565b6135e08161348d565b81146135eb57600080fd5b50565b6135f7816134bf565b811461360257600080fd5b5056fea2646970667358221220ecb5711b79b3fdbdac68136d0ff6e5b9040e6db58a3fa40507055c8d95039fcd64736f6c63430006040033",
  "source": "pragma solidity ^0.6.4;\npragma experimental ABIEncoderV2;\n\nimport './LikeStorage.sol';\n\nabstract contract GetLoginLogic {\n    function getUsernameByAddress(address wallet) public virtual view returns (bytes32);\n}\n\nabstract contract GetLoginStorage {\n    function logicAddress() public virtual view returns (address);\n}\n\n// SPDX-License-Identifier: UNLICENSED\ncontract LikeLogic {\n    LikeStorage public likeStorage;\n    GetLoginStorage public GLStorage;\n    address public owner;\n\n    struct UserStatistics {\n        LikeStorage.ResourceIdStatistics resourceStatistics;\n        bytes32 usernameHash;\n        bool isLiked;\n    }\n\n    constructor(LikeStorage _likeStorage, GetLoginStorage _GLStorage) public {\n        _setLikeStorage(_likeStorage);\n        _setOwner(msg.sender);\n        _setGLStorage(_GLStorage);\n        // todo init storage if needed\n    }\n\n    modifier onlyOwner() {\n        require(msg.sender == owner, \"Caller is not the owner\");\n        _;\n    }\n\n    function _setOwner(address _address) private {\n        owner = _address;\n    }\n\n    function _setLikeStorage(LikeStorage _storageAddress) private {\n        likeStorage = _storageAddress;\n    }\n\n    function _setGLStorage(GetLoginStorage _storageAddress) private {\n        GLStorage = _storageAddress;\n    }\n\n    /*function _like(uint resourceTypeId, uint resourceId) private {\n        //bytes32 usernameHash = getGLUsernameHash(msg.sender);\n    }*/\n\n    function _incrementResourceType(uint resourceTypeId, uint donates) private {\n        LikeStorage.ResourceType memory resourceType = validateGetResourceType(resourceTypeId);\n        resourceType.donates += donates;\n        resourceType.reactions++;\n        likeStorage.setResourceType(resourceTypeId, resourceType);\n    }\n\n    function _incrementResourceId(uint resourceTypeId, bytes32 resourceIdHash, uint donate) private {\n        bytes32 resourceIdKey = getResourceIdKey(resourceTypeId, resourceIdHash);\n        LikeStorage.ResourceIdStatistics memory resourceIdStatistics = likeStorage.getResourceIdStatistics(resourceIdKey);\n        resourceIdStatistics.resourceTypeId = resourceTypeId;\n        resourceIdStatistics.reactions++;\n        resourceIdStatistics.donates += donate;\n        resourceIdStatistics.resourceIdHash = resourceIdHash;\n        resourceIdStatistics.isActive = true;\n        likeStorage.setResourceIdStatistics(resourceIdKey, resourceIdStatistics);\n    }\n\n    function _incrementResourceUrl(bytes32 urlHash, uint donate) private {\n        bytes32 resourceIdKey = getUrlHashKey(urlHash);\n        LikeStorage.ResourceIdStatistics memory resourceIdStatistics = likeStorage.getResourceIdStatistics(resourceIdKey);\n        resourceIdStatistics.reactions++;\n        resourceIdStatistics.donates += donate;\n        resourceIdStatistics.urlHash = urlHash;\n        resourceIdStatistics.isActive = true;\n        likeStorage.setResourceIdStatistics(resourceIdKey, resourceIdStatistics);\n    }\n\n    function _decrementResourceUrl(bytes32 urlHash) private {\n        bytes32 resourceIdKey = getUrlHashKey(urlHash);\n        LikeStorage.ResourceIdStatistics memory resourceIdStatistics = likeStorage.getResourceIdStatistics(resourceIdKey);\n        resourceIdStatistics.reactions--;\n        resourceIdStatistics.urlHash = urlHash;\n        resourceIdStatistics.isActive = true;\n        likeStorage.setResourceIdStatistics(resourceIdKey, resourceIdStatistics);\n    }\n\n    function _preventDoubleLikeUrl(bytes32 usernameHash, bytes32 urlHash, bool result) private {\n        bytes32 userLikeKey = getUserLikeUrlKey(usernameHash, urlHash);\n        require(likeStorage.getUserLike(userLikeKey) == false, \"Already liked\");\n        likeStorage.setUserLike(userLikeKey, result);\n    }\n\n    function _sendDonation(uint sum, address payable _address) private {\n        if (sum > 0 && _address != address(0)) {\n            _address.transfer(msg.value);\n        }\n    }\n\n    /* Public methods */\n\n    function setLikeStorage(LikeStorage _storageAddress) onlyOwner public {\n        _setLikeStorage(_storageAddress);\n    }\n\n    function setGLStorage(GetLoginStorage _storageAddress) onlyOwner public {\n        _setGLStorage(_storageAddress);\n    }\n\n    function setOwner(address _address) onlyOwner public {\n        _setOwner(_address);\n    }\n\n    function createResourceType(string memory title, string memory description, string memory url) public {\n        bytes32 ownerUsernameHash = getGLUsernameHash(msg.sender);\n        uint id = likeStorage.newResourceId();\n        LikeStorage.ResourceType memory resource = LikeStorage.ResourceType({\n            id : id,\n            title : title,\n            description : description,\n            url : url,\n            reactions : 0,\n            donates : 0,\n            ownerUsernameHash : ownerUsernameHash,\n            isActive : true\n            });\n\n        likeStorage.setResourceType(id, resource);\n        likeStorage.incrementResourceId();\n        likeStorage.emitEventResourceTypeCreated(id, ownerUsernameHash);\n    }\n\n    function editResourceType(uint id, string memory title, string memory description, string memory url) public {\n        bytes32 ownerUsernameHash = getGLUsernameHash(msg.sender);\n        LikeStorage.ResourceType memory resource = validateGetResourceType(id);\n        require(resource.ownerUsernameHash == ownerUsernameHash, \"Do not have rights for editing\");\n        resource.title = title;\n        resource.description = description;\n        resource.url = url;\n        likeStorage.setResourceType(id, resource);\n    }\n\n    function like(uint resourceTypeId, bytes32 resourceIdHash, address payable donateAddress) payable public {\n        bytes32 usernameHash = getGLUsernameHash(msg.sender);\n        bytes32 userLikeKey = getUserLikeResourceKey(usernameHash, resourceTypeId, resourceIdHash);\n        require(likeStorage.getUserLike(userLikeKey) == false, \"Already liked\");\n        likeStorage.setUserLike(userLikeKey, true);\n\n        _incrementResourceType(resourceTypeId, msg.value);\n        _incrementResourceId(resourceTypeId, resourceIdHash, msg.value);\n        _sendDonation(msg.value, donateAddress);\n        likeStorage.emitEventLikeResource(resourceTypeId, resourceIdHash);\n    }\n\n    function unlike(uint resourceTypeId, bytes32 resourceIdHash) public {\n        LikeStorage.ResourceType memory resourceType = validateGetResourceType(resourceTypeId);\n        bytes32 usernameHash = getGLUsernameHash(msg.sender);\n\n        bytes32 resourceIdKey = getResourceIdKey(resourceTypeId, resourceIdHash);\n        bytes32 userLikeKey = getUserLikeResourceKey(usernameHash, resourceTypeId, resourceIdHash);\n        require(likeStorage.getUserLike(userLikeKey), \"User not liked this content\");\n        likeStorage.setUserLike(userLikeKey, false);\n\n        // todo move to incrementMethod and rename it\n        LikeStorage.ResourceIdStatistics memory resourceIdStatistics = likeStorage.getResourceIdStatistics(resourceIdKey);\n        resourceIdStatistics.reactions--;\n        likeStorage.setResourceIdStatistics(resourceIdKey, resourceIdStatistics);\n    }\n\n    function likeUrl(bytes32 urlHash, address payable donateAddress) payable public {\n        bytes32 usernameHash = getGLUsernameHash(msg.sender);\n\n        bytes32 key = getUserLikeUrlKey(usernameHash, urlHash);\n        require(likeStorage.getUserLike(key) == false, \"Already liked\");\n        likeStorage.setUserLike(key, true);\n        _incrementResourceUrl(urlHash, msg.value);\n        _sendDonation(msg.value, donateAddress);\n        likeStorage.emitEventLikeUrl(urlHash);\n    }\n\n    function unlikeUrl(bytes32 urlHash) payable public {\n        bytes32 usernameHash = getGLUsernameHash(msg.sender);\n\n        bytes32 key = getUserLikeUrlKey(usernameHash, urlHash);\n        require(likeStorage.getUserLike(key) == true, \"User not liked this content\");\n        likeStorage.setUserLike(key, false);\n        _decrementResourceUrl(urlHash);\n    }\n\n    /* Getters */\n\n    function getUserLikeResourceKey(bytes32 usernameHash, uint resourceTypeId, bytes32 resourceIdHash) public view returns (bytes32){\n        return keccak256(abi.encode(\"user_like_resource_\", usernameHash, \"_\", resourceTypeId, \"_\", resourceIdHash, \"_end\"));\n    }\n\n    function getUserLikeUrlKey(bytes32 usernameHash, bytes32 urlHash) public view returns (bytes32){\n        return keccak256(abi.encode(\"user_like_url_\", usernameHash, \"_\", urlHash, \"_end\"));\n    }\n\n    function getResourceIdKey(uint resourceTypeId, bytes32 resourceIdHash) public view returns (bytes32){\n        return keccak256(abi.encode(\"resource_id_\", resourceTypeId, \"_\", resourceIdHash, \"_end\"));\n    }\n\n    function getUrlHashKey(bytes32 urlHash) public view returns (bytes32){\n        return keccak256(abi.encode(\"url_hash_\", urlHash, \"_end\"));\n    }\n\n    function getGLUsernameHash(address _address) public view returns (bytes32){\n        return GetLoginLogic(GLStorage.logicAddress()).getUsernameByAddress(_address);\n    }\n\n    /**\n    Get statistics by keccak256(url) hash which relate to resourceTypeId\n    **/\n    function getResourceIdStatistics(uint resourceTypeId, bytes32 resourceIdHash) public view returns (LikeStorage.ResourceIdStatistics memory){\n        bytes32 key = getResourceIdKey(resourceTypeId, resourceIdHash);\n\n        return likeStorage.getResourceIdStatistics(key);\n    }\n\n    /**\n    Get like statistics by any keccak256(url) hash\n    **/\n    function getResourceIdStatisticsUrl(bytes32 urlHash) public view returns (LikeStorage.ResourceIdStatistics memory){\n        bytes32 key = getUrlHashKey(urlHash);\n\n        return likeStorage.getResourceIdStatistics(key);\n    }\n\n    /**\n    Get like + user statistics by any keccak256(url) hash\n    **/\n    function getUserStatisticsUrl(bytes32 usernameHash, bytes32 urlHash) public view returns (UserStatistics memory){\n        return UserStatistics({\n            resourceStatistics : getResourceIdStatisticsUrl(urlHash),\n            usernameHash : usernameHash,\n            isLiked : likeStorage.getUserLike(getUserLikeUrlKey(usernameHash, urlHash))\n            });\n    }\n\n    function getUserStatisticsResource(bytes32 usernameHash, uint resourceTypeId, bytes32 resourceIdHash) public view returns (UserStatistics memory){\n        return UserStatistics({\n            resourceStatistics : getResourceIdStatistics(resourceTypeId, resourceIdHash),\n            usernameHash : usernameHash,\n            isLiked : likeStorage.getUserLike(getUserLikeResourceKey(usernameHash, resourceTypeId, resourceIdHash))\n            });\n    }\n\n    /* Validators */\n\n    function validateGetResourceType(uint key) public view returns (LikeStorage.ResourceType memory) {\n        LikeStorage.ResourceType memory data = likeStorage.getResourceType(key);\n        require(data.isActive, \"Resource type not found\");\n\n        return data;\n    }\n}\n",
  "sourcePath": "/Users/sdancer/web/like/smart/contracts/LikeLogic.sol",
  "compiler": {
    "name": "solc",
    "version": "0.6.4+commit.1dca32f3.Emscripten.clang"
  },
  "schemaVersion": "3.1.0",
  "updatedAt": "2020-06-20T13:44:21.102Z",
  "devdoc": {
    "methods": {}
  },
  "userdoc": {
    "methods": {
      "getResourceIdStatistics(uint256,bytes32)": {
        "notice": "Get statistics by keccak256(url) hash which relate to resourceTypeId*"
      },
      "getResourceIdStatisticsUrl(bytes32)": {
        "notice": "Get like statistics by any keccak256(url) hash*"
      },
      "getUserStatisticsUrl(bytes32,bytes32)": {
        "notice": "Get like + user statistics by any keccak256(url) hash*"
      }
    }
  }
}